{
  "abi": [
    {
      "inputs": [],
      "stateMutability": "payable",
      "type": "constructor"
    },
    {
      "inputs": [
        {
          "internalType": "uint256",
          "name": "price",
          "type": "uint256"
        },
        {
          "internalType": "address",
          "name": "contractAddr",
          "type": "address"
        },
        {
          "internalType": "uint256",
          "name": "tokenId",
          "type": "uint256"
        }
      ],
      "name": "addConstantOffer",
      "outputs": [],
      "stateMutability": "nonpayable",
      "type": "function"
    },
    {
      "inputs": [
        {
          "internalType": "uint256",
          "name": "dayPriceChange",
          "type": "uint256"
        },
        {
          "internalType": "uint256",
          "name": "minPrice",
          "type": "uint256"
        },
        {
          "internalType": "uint256",
          "name": "maxPrice",
          "type": "uint256"
        },
        {
          "internalType": "address",
          "name": "contractAddr",
          "type": "address"
        },
        {
          "internalType": "uint256",
          "name": "tokenId",
          "type": "uint256"
        }
      ],
      "name": "addTimedOffer",
      "outputs": [],
      "stateMutability": "nonpayable",
      "type": "function"
    },
    {
      "inputs": [
        {
          "internalType": "address",
          "name": "",
          "type": "address"
        },
        {
          "internalType": "uint256",
          "name": "",
          "type": "uint256"
        }
      ],
      "name": "constantOffers",
      "outputs": [
        {
          "internalType": "uint256",
          "name": "price",
          "type": "uint256"
        },
        {
          "internalType": "bool",
          "name": "isSet",
          "type": "bool"
        }
      ],
      "stateMutability": "view",
      "type": "function"
    },
    {
      "inputs": [
        {
          "internalType": "address",
          "name": "contractAddr",
          "type": "address"
        },
        {
          "internalType": "uint256",
          "name": "tokenId",
          "type": "uint256"
        }
      ],
      "name": "constantPurchase",
      "outputs": [],
      "stateMutability": "payable",
      "type": "function"
    },
    {
      "inputs": [
        {
          "internalType": "address",
          "name": "contractAddr",
          "type": "address"
        },
        {
          "internalType": "uint256",
          "name": "tokenId",
          "type": "uint256"
        }
      ],
      "name": "deleteConstantOffer",
      "outputs": [],
      "stateMutability": "nonpayable",
      "type": "function"
    },
    {
      "inputs": [
        {
          "internalType": "address",
          "name": "contractAddr",
          "type": "address"
        },
        {
          "internalType": "uint256",
          "name": "tokenId",
          "type": "uint256"
        }
      ],
      "name": "deleteTimedOffer",
      "outputs": [],
      "stateMutability": "nonpayable",
      "type": "function"
    },
    {
      "inputs": [],
      "name": "getBalance",
      "outputs": [
        {
          "internalType": "uint256",
          "name": "balance",
          "type": "uint256"
        }
      ],
      "stateMutability": "view",
      "type": "function"
    },
    {
      "inputs": [
        {
          "internalType": "address",
          "name": "contractAddr",
          "type": "address"
        },
        {
          "internalType": "uint256",
          "name": "tokenId",
          "type": "uint256"
        }
      ],
      "name": "getTimedOffer",
      "outputs": [
        {
          "internalType": "uint256",
          "name": "minPrice",
          "type": "uint256"
        },
        {
          "internalType": "uint256",
          "name": "currentPrice",
          "type": "uint256"
        },
        {
          "internalType": "bool",
          "name": "isSet",
          "type": "bool"
        }
      ],
      "stateMutability": "view",
      "type": "function"
    },
    {
      "inputs": [
        {
          "internalType": "address",
          "name": "contractAddr",
          "type": "address"
        },
        {
          "internalType": "uint256",
          "name": "tokenId",
          "type": "uint256"
        }
      ],
      "name": "getTimedPrice",
      "outputs": [
        {
          "internalType": "uint256",
          "name": "currentPrice",
          "type": "uint256"
        }
      ],
      "stateMutability": "view",
      "type": "function"
    },
    {
      "inputs": [
        {
          "internalType": "int256",
          "name": "offsetSeconds",
          "type": "int256"
        },
        {
          "internalType": "address",
          "name": "contractAddr",
          "type": "address"
        },
        {
          "internalType": "uint256",
          "name": "tokenId",
          "type": "uint256"
        }
      ],
      "name": "offsetTimedOffer",
      "outputs": [],
      "stateMutability": "nonpayable",
      "type": "function"
    },
    {
      "inputs": [
        {
          "internalType": "address payable",
          "name": "newOwner",
          "type": "address"
        }
      ],
      "name": "setOwner",
      "outputs": [],
      "stateMutability": "nonpayable",
      "type": "function"
    },
    {
      "inputs": [
        {
          "internalType": "address",
          "name": "",
          "type": "address"
        },
        {
          "internalType": "uint256",
          "name": "",
          "type": "uint256"
        }
      ],
      "name": "timedOffers",
      "outputs": [
        {
          "internalType": "uint256",
          "name": "createdAt",
          "type": "uint256"
        },
        {
          "internalType": "uint256",
          "name": "dayPriceChange",
          "type": "uint256"
        },
        {
          "internalType": "uint256",
          "name": "minPrice",
          "type": "uint256"
        },
        {
          "internalType": "uint256",
          "name": "maxPrice",
          "type": "uint256"
        },
        {
          "internalType": "bool",
          "name": "isSet",
          "type": "bool"
        }
      ],
      "stateMutability": "view",
      "type": "function"
    },
    {
      "inputs": [
        {
          "internalType": "address",
          "name": "contractAddr",
          "type": "address"
        },
        {
          "internalType": "uint256",
          "name": "tokenId",
          "type": "uint256"
        }
      ],
      "name": "timedPurchase",
      "outputs": [],
      "stateMutability": "payable",
      "type": "function"
    },
    {
      "inputs": [],
      "name": "tradeOwner",
      "outputs": [
        {
          "internalType": "address payable",
          "name": "",
          "type": "address"
        }
      ],
      "stateMutability": "view",
      "type": "function"
    },
    {
      "inputs": [],
      "name": "withdraw",
      "outputs": [],
      "stateMutability": "nonpayable",
      "type": "function"
    }
  ],
  "bytecode": "6080604052600280546001600160a01b03191633179055610fb2806100256000396000f3fe6080604052600436106100e85760003560e01c80636ff45c351161008a578063d423bf1211610059578063d423bf121461025f578063e2ab75ef14610290578063e8bef82d146102b2578063f3ed1a99146102d2576100e8565b80636ff45c35146101cf57806376fc2459146101fd578063b4a30afb1461021d578063cdffe0c514610230576100e8565b80632e94ca2a116100c65780632e94ca2a1461015a5780633ccfd60b1461017a5780635768b4c41461018f578063631c8a24146101af576100e8565b806312065fe0146100ed57806313af40351461011857806325e8aa1f1461013a575b600080fd5b3480156100f957600080fd5b506101026102e5565b60405161010f9190610e8a565b60405180910390f35b34801561012457600080fd5b50610138610133366004610c6e565b610320565b005b34801561014657600080fd5b50610138610155366004610c8a565b61036c565b34801561016657600080fd5b50610138610175366004610c8a565b6103c9565b34801561018657600080fd5b5061013861043c565b34801561019b57600080fd5b506101386101aa366004610cec565b6104ef565b3480156101bb57600080fd5b506101386101ca366004610cb5565b610614565b3480156101db57600080fd5b506101ef6101ea366004610c8a565b6106a2565b60405161010f929190610e93565b34801561020957600080fd5b50610102610218366004610c8a565b6106c6565b61013861022b366004610c8a565b610788565b34801561023c57600080fd5b5061025061024b366004610c8a565b6108a3565b60405161010f93929190610ea3565b34801561026b57600080fd5b5061027f61027a366004610c8a565b610918565b60405161010f959493929190610ebb565b34801561029c57600080fd5b506102a5610952565b60405161010f9190610d4b565b3480156102be57600080fd5b506101386102cd366004610d00565b610961565b6101386102e0366004610c8a565b610ab6565b6002546000906001600160a01b0316331461031b5760405162461bcd60e51b815260040161031290610dda565b60405180910390fd5b504790565b6002546001600160a01b0316331461034a5760405162461bcd60e51b815260040161031290610dda565b600280546001600160a01b0319166001600160a01b0392909216919091179055565b6002546001600160a01b031633146103965760405162461bcd60e51b815260040161031290610dda565b6001600160a01b03909116600090815260016020818152604080842094845293905291812090815501805460ff19169055565b6002546001600160a01b031633146103f35760405162461bcd60e51b815260040161031290610dda565b6001600160a01b0390911660009081526020818152604080832093835292905290812081815560018101829055600281018290556003810191909155600401805460ff19169055565b6002546001600160a01b031633146104665760405162461bcd60e51b815260040161031290610dda565b60025460405147916000916001600160a01b0390911690839061048890610d48565b60006040518083038185875af1925050503d80600081146104c5576040519150601f19603f3d011682016040523d82523d6000602084013e6104ca565b606091505b50509050806104eb5760405162461bcd60e51b815260040161031290610dac565b5050565b6002546001600160a01b031633146105195760405162461bcd60e51b815260040161031290610dda565b6002546040516331a9108f60e11b815283916001600160a01b039081169190831690636352211e9061054f908690600401610e8a565b60206040518083038186803b15801561056757600080fd5b505afa15801561057b573d6000803e3d6000fd5b505050506040513d601f19601f8201168201806040525081019061059f9190610c52565b6001600160a01b0316146105c55760405162461bcd60e51b815260040161031290610e1c565b50604080518082018252938452600160208086018281526001600160a01b0395909516600090815282825283812094815293905291209251835590519101805460ff1916911515919091179055565b6002546001600160a01b0316331461063e5760405162461bcd60e51b815260040161031290610dda565b6001600160a01b0382166000908152602081815260408083208484529091529020600481015460ff166106835760405162461bcd60e51b815260040161031290610d83565b838160000160008282546106979190610ee0565b909155505050505050565b60016020818152600093845260408085209091529183529120805491015460ff1682565b6001600160a01b0382166000908152602081815260408083208484528252808320815160a08101835281548152600182015493810193909352600281015491830191909152600381015460608301526004015460ff16158015608083015261077c57600061074461073b428460000151610c10565b62015180610c23565b90506000610763836060015161075e848660200151610c2f565b610c10565b9050610773836040015182610c3b565b93505050610781565b600091505b5092915050565b6001600160a01b03821660009081526001602081815260408084208585528252928390208351808501909452805484529091015460ff1615159082018190526107e35760405162461bcd60e51b815260040161031290610d83565b80513410156108045760405162461bcd60e51b815260040161031290610e53565b600254604051632142170760e11b815284916001600160a01b03808416926342842e0e9261083a92169033908890600401610d5f565b600060405180830381600087803b15801561085457600080fd5b505af1158015610868573d6000803e3d6000fd5b5050506001600160a01b039094166000908152600160208181526040808420968452959052938120908155909201805460ff19169055505050565b6001600160a01b0382166000908152602081815260408083208484528252808320815160a081018352815481526001820154938101939093526002810154918301829052600381015460608401526004015460ff1615156080830181905290929161090e86866106c6565b9250509250925092565b6000602081815292815260408082209093529081522080546001820154600283015460038401546004909401549293919290919060ff1685565b6002546001600160a01b031681565b6002546001600160a01b0316331461098b5760405162461bcd60e51b815260040161031290610dda565b6002546040516331a9108f60e11b815283916001600160a01b039081169190831690636352211e906109c1908690600401610e8a565b60206040518083038186803b1580156109d957600080fd5b505afa1580156109ed573d6000803e3d6000fd5b505050506040513d601f19601f82011682018060405250810190610a119190610c52565b6001600160a01b031614610a375760405162461bcd60e51b815260040161031290610e1c565b506040805160a0810182524281526020808201978852818301968752606082019586526001608083018181526001600160a01b0396909616600090815280835284812095815294909152919092209151825594519481019490945591516002840155516003830155516004909101805460ff1916911515919091179055565b6001600160a01b038216600090815260208181526040808320848452825291829020825160a081018452815481526001820154928101929092526002810154928201929092526003820154606082015260049091015460ff16151560808201819052610b345760405162461bcd60e51b815260040161031290610d83565b610b3e83836106c6565b341015610b5d5760405162461bcd60e51b815260040161031290610e53565b600254604051632142170760e11b815284916001600160a01b03808416926342842e0e92610b9392169033908890600401610d5f565b600060405180830381600087803b158015610bad57600080fd5b505af1158015610bc1573d6000803e3d6000fd5b5050506001600160a01b03909416600090815260208181526040808320958352949052928320838155600181018490556002810184905560038101939093555050600401805460ff1916905550565b6000610c1c8284610f37565b9392505050565b6000610c1c8284610ef8565b6000610c1c8284610f18565b600081831015610c4b5781610c1c565b5090919050565b600060208284031215610c63578081fd5b8151610c1c81610f64565b600060208284031215610c7f578081fd5b8135610c1c81610f64565b60008060408385031215610c9c578081fd5b8235610ca781610f64565b946020939093013593505050565b600080600060608486031215610cc9578081fd5b833592506020840135610cdb81610f64565b929592945050506040919091013590565b600080600060608486031215610cc9578283fd5b600080600080600060a08688031215610d17578081fd5b8535945060208601359350604086013592506060860135610d3781610f64565b949793965091946080013592915050565b90565b6001600160a01b0391909116815260200190565b6001600160a01b039384168152919092166020820152604081019190915260600190565b6020808252600f908201526e13d999995c881b9bdd08199bdd5b99608a1b604082015260600190565b6020808252601490820152732330b4b632b2103a379039b2b7321022ba3432b960611b604082015260600190565b60208082526022908201527f4973206e6f74206f776e6572206f662074686520747261646520636f6e74726160408201526118dd60f21b606082015260800190565b6020808252601c908201527f4973206e6f74206f776e6572206f662045524337323120746f6b656e00000000604082015260600190565b60208082526017908201527f496e73756666696369656e742066756e64732073656e74000000000000000000604082015260600190565b90815260200190565b9182521515602082015260400190565b92835260208301919091521515604082015260600190565b9485526020850193909352604084019190915260608301521515608082015260a00190565b60008219821115610ef357610ef3610f4e565b500190565b600082610f1357634e487b7160e01b81526012600452602481fd5b500490565b6000816000190483118215151615610f3257610f32610f4e565b500290565b600082821015610f4957610f49610f4e565b500390565b634e487b7160e01b600052601160045260246000fd5b6001600160a01b0381168114610f7957600080fd5b5056fea2646970667358221220dc14a2a2fa2802841f4c3ebce1aaadf6e98b7382ec398470995bbf6ba00f514864736f6c63430008000033",
  "bytecodeSha1": "050b14cac02b4b79bce4b65857e126ecf5613c15",
  "compiler": {
    "evm_version": "istanbul",
    "optimizer": {
      "enabled": true,
      "runs": 200
    },
    "version": "0.8.0+commit.c7dfd78e"
  },
  "contractName": "NftTrader",
  "language": "Solidity",
  "natspec": {
    "kind": "dev",
    "methods": {},
    "version": 1
  },
  "opcodes": "PUSH1 0x80 PUSH1 0x40 MSTORE PUSH1 0x4 CALLDATASIZE LT PUSH2 0xE8 JUMPI PUSH1 0x0 CALLDATALOAD PUSH1 0xE0 SHR DUP1 PUSH4 0x6FF45C35 GT PUSH2 0x8A JUMPI DUP1 PUSH4 0xD423BF12 GT PUSH2 0x59 JUMPI DUP1 PUSH4 0xD423BF12 EQ PUSH2 0x25F JUMPI DUP1 PUSH4 0xE2AB75EF EQ PUSH2 0x290 JUMPI DUP1 PUSH4 0xE8BEF82D EQ PUSH2 0x2B2 JUMPI DUP1 PUSH4 0xF3ED1A99 EQ PUSH2 0x2D2 JUMPI PUSH2 0xE8 JUMP JUMPDEST DUP1 PUSH4 0x6FF45C35 EQ PUSH2 0x1CF JUMPI DUP1 PUSH4 0x76FC2459 EQ PUSH2 0x1FD JUMPI DUP1 PUSH4 0xB4A30AFB EQ PUSH2 0x21D JUMPI DUP1 PUSH4 0xCDFFE0C5 EQ PUSH2 0x230 JUMPI PUSH2 0xE8 JUMP JUMPDEST DUP1 PUSH4 0x2E94CA2A GT PUSH2 0xC6 JUMPI DUP1 PUSH4 0x2E94CA2A EQ PUSH2 0x15A JUMPI DUP1 PUSH4 0x3CCFD60B EQ PUSH2 0x17A JUMPI DUP1 PUSH4 0x5768B4C4 EQ PUSH2 0x18F JUMPI DUP1 PUSH4 0x631C8A24 EQ PUSH2 0x1AF JUMPI PUSH2 0xE8 JUMP JUMPDEST DUP1 PUSH4 0x12065FE0 EQ PUSH2 0xED JUMPI DUP1 PUSH4 0x13AF4035 EQ PUSH2 0x118 JUMPI DUP1 PUSH4 0x25E8AA1F EQ PUSH2 0x13A JUMPI JUMPDEST PUSH1 0x0 DUP1 REVERT JUMPDEST CALLVALUE DUP1 ISZERO PUSH2 0xF9 JUMPI PUSH1 0x0 DUP1 REVERT JUMPDEST POP PUSH2 0x102 PUSH2 0x2E5 JUMP JUMPDEST PUSH1 0x40 MLOAD PUSH2 0x10F SWAP2 SWAP1 PUSH2 0xE8A JUMP JUMPDEST PUSH1 0x40 MLOAD DUP1 SWAP2 SUB SWAP1 RETURN JUMPDEST CALLVALUE DUP1 ISZERO PUSH2 0x124 JUMPI PUSH1 0x0 DUP1 REVERT JUMPDEST POP PUSH2 0x138 PUSH2 0x133 CALLDATASIZE PUSH1 0x4 PUSH2 0xC6E JUMP JUMPDEST PUSH2 0x320 JUMP JUMPDEST STOP JUMPDEST CALLVALUE DUP1 ISZERO PUSH2 0x146 JUMPI PUSH1 0x0 DUP1 REVERT JUMPDEST POP PUSH2 0x138 PUSH2 0x155 CALLDATASIZE PUSH1 0x4 PUSH2 0xC8A JUMP JUMPDEST PUSH2 0x36C JUMP JUMPDEST CALLVALUE DUP1 ISZERO PUSH2 0x166 JUMPI PUSH1 0x0 DUP1 REVERT JUMPDEST POP PUSH2 0x138 PUSH2 0x175 CALLDATASIZE PUSH1 0x4 PUSH2 0xC8A JUMP JUMPDEST PUSH2 0x3C9 JUMP JUMPDEST CALLVALUE DUP1 ISZERO PUSH2 0x186 JUMPI PUSH1 0x0 DUP1 REVERT JUMPDEST POP PUSH2 0x138 PUSH2 0x43C JUMP JUMPDEST CALLVALUE DUP1 ISZERO PUSH2 0x19B JUMPI PUSH1 0x0 DUP1 REVERT JUMPDEST POP PUSH2 0x138 PUSH2 0x1AA CALLDATASIZE PUSH1 0x4 PUSH2 0xCEC JUMP JUMPDEST PUSH2 0x4EF JUMP JUMPDEST CALLVALUE DUP1 ISZERO PUSH2 0x1BB JUMPI PUSH1 0x0 DUP1 REVERT JUMPDEST POP PUSH2 0x138 PUSH2 0x1CA CALLDATASIZE PUSH1 0x4 PUSH2 0xCB5 JUMP JUMPDEST PUSH2 0x614 JUMP JUMPDEST CALLVALUE DUP1 ISZERO PUSH2 0x1DB JUMPI PUSH1 0x0 DUP1 REVERT JUMPDEST POP PUSH2 0x1EF PUSH2 0x1EA CALLDATASIZE PUSH1 0x4 PUSH2 0xC8A JUMP JUMPDEST PUSH2 0x6A2 JUMP JUMPDEST PUSH1 0x40 MLOAD PUSH2 0x10F SWAP3 SWAP2 SWAP1 PUSH2 0xE93 JUMP JUMPDEST CALLVALUE DUP1 ISZERO PUSH2 0x209 JUMPI PUSH1 0x0 DUP1 REVERT JUMPDEST POP PUSH2 0x102 PUSH2 0x218 CALLDATASIZE PUSH1 0x4 PUSH2 0xC8A JUMP JUMPDEST PUSH2 0x6C6 JUMP JUMPDEST PUSH2 0x138 PUSH2 0x22B CALLDATASIZE PUSH1 0x4 PUSH2 0xC8A JUMP JUMPDEST PUSH2 0x788 JUMP JUMPDEST CALLVALUE DUP1 ISZERO PUSH2 0x23C JUMPI PUSH1 0x0 DUP1 REVERT JUMPDEST POP PUSH2 0x250 PUSH2 0x24B CALLDATASIZE PUSH1 0x4 PUSH2 0xC8A JUMP JUMPDEST PUSH2 0x8A3 JUMP JUMPDEST PUSH1 0x40 MLOAD PUSH2 0x10F SWAP4 SWAP3 SWAP2 SWAP1 PUSH2 0xEA3 JUMP JUMPDEST CALLVALUE DUP1 ISZERO PUSH2 0x26B JUMPI PUSH1 0x0 DUP1 REVERT JUMPDEST POP PUSH2 0x27F PUSH2 0x27A CALLDATASIZE PUSH1 0x4 PUSH2 0xC8A JUMP JUMPDEST PUSH2 0x918 JUMP JUMPDEST PUSH1 0x40 MLOAD PUSH2 0x10F SWAP6 SWAP5 SWAP4 SWAP3 SWAP2 SWAP1 PUSH2 0xEBB JUMP JUMPDEST CALLVALUE DUP1 ISZERO PUSH2 0x29C JUMPI PUSH1 0x0 DUP1 REVERT JUMPDEST POP PUSH2 0x2A5 PUSH2 0x952 JUMP JUMPDEST PUSH1 0x40 MLOAD PUSH2 0x10F SWAP2 SWAP1 PUSH2 0xD4B JUMP JUMPDEST CALLVALUE DUP1 ISZERO PUSH2 0x2BE JUMPI PUSH1 0x0 DUP1 REVERT JUMPDEST POP PUSH2 0x138 PUSH2 0x2CD CALLDATASIZE PUSH1 0x4 PUSH2 0xD00 JUMP JUMPDEST PUSH2 0x961 JUMP JUMPDEST PUSH2 0x138 PUSH2 0x2E0 CALLDATASIZE PUSH1 0x4 PUSH2 0xC8A JUMP JUMPDEST PUSH2 0xAB6 JUMP JUMPDEST PUSH1 0x2 SLOAD PUSH1 0x0 SWAP1 PUSH1 0x1 PUSH1 0x1 PUSH1 0xA0 SHL SUB AND CALLER EQ PUSH2 0x31B JUMPI PUSH1 0x40 MLOAD PUSH3 0x461BCD PUSH1 0xE5 SHL DUP2 MSTORE PUSH1 0x4 ADD PUSH2 0x312 SWAP1 PUSH2 0xDDA JUMP JUMPDEST PUSH1 0x40 MLOAD DUP1 SWAP2 SUB SWAP1 REVERT JUMPDEST POP SELFBALANCE SWAP1 JUMP JUMPDEST PUSH1 0x2 SLOAD PUSH1 0x1 PUSH1 0x1 PUSH1 0xA0 SHL SUB AND CALLER EQ PUSH2 0x34A JUMPI PUSH1 0x40 MLOAD PUSH3 0x461BCD PUSH1 0xE5 SHL DUP2 MSTORE PUSH1 0x4 ADD PUSH2 0x312 SWAP1 PUSH2 0xDDA JUMP JUMPDEST PUSH1 0x2 DUP1 SLOAD PUSH1 0x1 PUSH1 0x1 PUSH1 0xA0 SHL SUB NOT AND PUSH1 0x1 PUSH1 0x1 PUSH1 0xA0 SHL SUB SWAP3 SWAP1 SWAP3 AND SWAP2 SWAP1 SWAP2 OR SWAP1 SSTORE JUMP JUMPDEST PUSH1 0x2 SLOAD PUSH1 0x1 PUSH1 0x1 PUSH1 0xA0 SHL SUB AND CALLER EQ PUSH2 0x396 JUMPI PUSH1 0x40 MLOAD PUSH3 0x461BCD PUSH1 0xE5 SHL DUP2 MSTORE PUSH1 0x4 ADD PUSH2 0x312 SWAP1 PUSH2 0xDDA JUMP JUMPDEST PUSH1 0x1 PUSH1 0x1 PUSH1 0xA0 SHL SUB SWAP1 SWAP2 AND PUSH1 0x0 SWAP1 DUP2 MSTORE PUSH1 0x1 PUSH1 0x20 DUP2 DUP2 MSTORE PUSH1 0x40 DUP1 DUP5 KECCAK256 SWAP5 DUP5 MSTORE SWAP4 SWAP1 MSTORE SWAP2 DUP2 KECCAK256 SWAP1 DUP2 SSTORE ADD DUP1 SLOAD PUSH1 0xFF NOT AND SWAP1 SSTORE JUMP JUMPDEST PUSH1 0x2 SLOAD PUSH1 0x1 PUSH1 0x1 PUSH1 0xA0 SHL SUB AND CALLER EQ PUSH2 0x3F3 JUMPI PUSH1 0x40 MLOAD PUSH3 0x461BCD PUSH1 0xE5 SHL DUP2 MSTORE PUSH1 0x4 ADD PUSH2 0x312 SWAP1 PUSH2 0xDDA JUMP JUMPDEST PUSH1 0x1 PUSH1 0x1 PUSH1 0xA0 SHL SUB SWAP1 SWAP2 AND PUSH1 0x0 SWAP1 DUP2 MSTORE PUSH1 0x20 DUP2 DUP2 MSTORE PUSH1 0x40 DUP1 DUP4 KECCAK256 SWAP4 DUP4 MSTORE SWAP3 SWAP1 MSTORE SWAP1 DUP2 KECCAK256 DUP2 DUP2 SSTORE PUSH1 0x1 DUP2 ADD DUP3 SWAP1 SSTORE PUSH1 0x2 DUP2 ADD DUP3 SWAP1 SSTORE PUSH1 0x3 DUP2 ADD SWAP2 SWAP1 SWAP2 SSTORE PUSH1 0x4 ADD DUP1 SLOAD PUSH1 0xFF NOT AND SWAP1 SSTORE JUMP JUMPDEST PUSH1 0x2 SLOAD PUSH1 0x1 PUSH1 0x1 PUSH1 0xA0 SHL SUB AND CALLER EQ PUSH2 0x466 JUMPI PUSH1 0x40 MLOAD PUSH3 0x461BCD PUSH1 0xE5 SHL DUP2 MSTORE PUSH1 0x4 ADD PUSH2 0x312 SWAP1 PUSH2 0xDDA JUMP JUMPDEST PUSH1 0x2 SLOAD PUSH1 0x40 MLOAD SELFBALANCE SWAP2 PUSH1 0x0 SWAP2 PUSH1 0x1 PUSH1 0x1 PUSH1 0xA0 SHL SUB SWAP1 SWAP2 AND SWAP1 DUP4 SWAP1 PUSH2 0x488 SWAP1 PUSH2 0xD48 JUMP JUMPDEST PUSH1 0x0 PUSH1 0x40 MLOAD DUP1 DUP4 SUB DUP2 DUP6 DUP8 GAS CALL SWAP3 POP POP POP RETURNDATASIZE DUP1 PUSH1 0x0 DUP2 EQ PUSH2 0x4C5 JUMPI PUSH1 0x40 MLOAD SWAP2 POP PUSH1 0x1F NOT PUSH1 0x3F RETURNDATASIZE ADD AND DUP3 ADD PUSH1 0x40 MSTORE RETURNDATASIZE DUP3 MSTORE RETURNDATASIZE PUSH1 0x0 PUSH1 0x20 DUP5 ADD RETURNDATACOPY PUSH2 0x4CA JUMP JUMPDEST PUSH1 0x60 SWAP2 POP JUMPDEST POP POP SWAP1 POP DUP1 PUSH2 0x4EB JUMPI PUSH1 0x40 MLOAD PUSH3 0x461BCD PUSH1 0xE5 SHL DUP2 MSTORE PUSH1 0x4 ADD PUSH2 0x312 SWAP1 PUSH2 0xDAC JUMP JUMPDEST POP POP JUMP JUMPDEST PUSH1 0x2 SLOAD PUSH1 0x1 PUSH1 0x1 PUSH1 0xA0 SHL SUB AND CALLER EQ PUSH2 0x519 JUMPI PUSH1 0x40 MLOAD PUSH3 0x461BCD PUSH1 0xE5 SHL DUP2 MSTORE PUSH1 0x4 ADD PUSH2 0x312 SWAP1 PUSH2 0xDDA JUMP JUMPDEST PUSH1 0x2 SLOAD PUSH1 0x40 MLOAD PUSH4 0x31A9108F PUSH1 0xE1 SHL DUP2 MSTORE DUP4 SWAP2 PUSH1 0x1 PUSH1 0x1 PUSH1 0xA0 SHL SUB SWAP1 DUP2 AND SWAP2 SWAP1 DUP4 AND SWAP1 PUSH4 0x6352211E SWAP1 PUSH2 0x54F SWAP1 DUP7 SWAP1 PUSH1 0x4 ADD PUSH2 0xE8A JUMP JUMPDEST PUSH1 0x20 PUSH1 0x40 MLOAD DUP1 DUP4 SUB DUP2 DUP7 DUP1 EXTCODESIZE ISZERO DUP1 ISZERO PUSH2 0x567 JUMPI PUSH1 0x0 DUP1 REVERT JUMPDEST POP GAS STATICCALL ISZERO DUP1 ISZERO PUSH2 0x57B JUMPI RETURNDATASIZE PUSH1 0x0 DUP1 RETURNDATACOPY RETURNDATASIZE PUSH1 0x0 REVERT JUMPDEST POP POP POP POP PUSH1 0x40 MLOAD RETURNDATASIZE PUSH1 0x1F NOT PUSH1 0x1F DUP3 ADD AND DUP3 ADD DUP1 PUSH1 0x40 MSTORE POP DUP2 ADD SWAP1 PUSH2 0x59F SWAP2 SWAP1 PUSH2 0xC52 JUMP JUMPDEST PUSH1 0x1 PUSH1 0x1 PUSH1 0xA0 SHL SUB AND EQ PUSH2 0x5C5 JUMPI PUSH1 0x40 MLOAD PUSH3 0x461BCD PUSH1 0xE5 SHL DUP2 MSTORE PUSH1 0x4 ADD PUSH2 0x312 SWAP1 PUSH2 0xE1C JUMP JUMPDEST POP PUSH1 0x40 DUP1 MLOAD DUP1 DUP3 ADD DUP3 MSTORE SWAP4 DUP5 MSTORE PUSH1 0x1 PUSH1 0x20 DUP1 DUP7 ADD DUP3 DUP2 MSTORE PUSH1 0x1 PUSH1 0x1 PUSH1 0xA0 SHL SUB SWAP6 SWAP1 SWAP6 AND PUSH1 0x0 SWAP1 DUP2 MSTORE DUP3 DUP3 MSTORE DUP4 DUP2 KECCAK256 SWAP5 DUP2 MSTORE SWAP4 SWAP1 MSTORE SWAP2 KECCAK256 SWAP3 MLOAD DUP4 SSTORE SWAP1 MLOAD SWAP2 ADD DUP1 SLOAD PUSH1 0xFF NOT AND SWAP2 ISZERO ISZERO SWAP2 SWAP1 SWAP2 OR SWAP1 SSTORE JUMP JUMPDEST PUSH1 0x2 SLOAD PUSH1 0x1 PUSH1 0x1 PUSH1 0xA0 SHL SUB AND CALLER EQ PUSH2 0x63E JUMPI PUSH1 0x40 MLOAD PUSH3 0x461BCD PUSH1 0xE5 SHL DUP2 MSTORE PUSH1 0x4 ADD PUSH2 0x312 SWAP1 PUSH2 0xDDA JUMP JUMPDEST PUSH1 0x1 PUSH1 0x1 PUSH1 0xA0 SHL SUB DUP3 AND PUSH1 0x0 SWAP1 DUP2 MSTORE PUSH1 0x20 DUP2 DUP2 MSTORE PUSH1 0x40 DUP1 DUP4 KECCAK256 DUP5 DUP5 MSTORE SWAP1 SWAP2 MSTORE SWAP1 KECCAK256 PUSH1 0x4 DUP2 ADD SLOAD PUSH1 0xFF AND PUSH2 0x683 JUMPI PUSH1 0x40 MLOAD PUSH3 0x461BCD PUSH1 0xE5 SHL DUP2 MSTORE PUSH1 0x4 ADD PUSH2 0x312 SWAP1 PUSH2 0xD83 JUMP JUMPDEST DUP4 DUP2 PUSH1 0x0 ADD PUSH1 0x0 DUP3 DUP3 SLOAD PUSH2 0x697 SWAP2 SWAP1 PUSH2 0xEE0 JUMP JUMPDEST SWAP1 SWAP2 SSTORE POP POP POP POP POP POP JUMP JUMPDEST PUSH1 0x1 PUSH1 0x20 DUP2 DUP2 MSTORE PUSH1 0x0 SWAP4 DUP5 MSTORE PUSH1 0x40 DUP1 DUP6 KECCAK256 SWAP1 SWAP2 MSTORE SWAP2 DUP4 MSTORE SWAP2 KECCAK256 DUP1 SLOAD SWAP2 ADD SLOAD PUSH1 0xFF AND DUP3 JUMP JUMPDEST PUSH1 0x1 PUSH1 0x1 PUSH1 0xA0 SHL SUB DUP3 AND PUSH1 0x0 SWAP1 DUP2 MSTORE PUSH1 0x20 DUP2 DUP2 MSTORE PUSH1 0x40 DUP1 DUP4 KECCAK256 DUP5 DUP5 MSTORE DUP3 MSTORE DUP1 DUP4 KECCAK256 DUP2 MLOAD PUSH1 0xA0 DUP2 ADD DUP4 MSTORE DUP2 SLOAD DUP2 MSTORE PUSH1 0x1 DUP3 ADD SLOAD SWAP4 DUP2 ADD SWAP4 SWAP1 SWAP4 MSTORE PUSH1 0x2 DUP2 ADD SLOAD SWAP2 DUP4 ADD SWAP2 SWAP1 SWAP2 MSTORE PUSH1 0x3 DUP2 ADD SLOAD PUSH1 0x60 DUP4 ADD MSTORE PUSH1 0x4 ADD SLOAD PUSH1 0xFF AND ISZERO DUP1 ISZERO PUSH1 0x80 DUP4 ADD MSTORE PUSH2 0x77C JUMPI PUSH1 0x0 PUSH2 0x744 PUSH2 0x73B TIMESTAMP DUP5 PUSH1 0x0 ADD MLOAD PUSH2 0xC10 JUMP JUMPDEST PUSH3 0x15180 PUSH2 0xC23 JUMP JUMPDEST SWAP1 POP PUSH1 0x0 PUSH2 0x763 DUP4 PUSH1 0x60 ADD MLOAD PUSH2 0x75E DUP5 DUP7 PUSH1 0x20 ADD MLOAD PUSH2 0xC2F JUMP JUMPDEST PUSH2 0xC10 JUMP JUMPDEST SWAP1 POP PUSH2 0x773 DUP4 PUSH1 0x40 ADD MLOAD DUP3 PUSH2 0xC3B JUMP JUMPDEST SWAP4 POP POP POP PUSH2 0x781 JUMP JUMPDEST PUSH1 0x0 SWAP2 POP JUMPDEST POP SWAP3 SWAP2 POP POP JUMP JUMPDEST PUSH1 0x1 PUSH1 0x1 PUSH1 0xA0 SHL SUB DUP3 AND PUSH1 0x0 SWAP1 DUP2 MSTORE PUSH1 0x1 PUSH1 0x20 DUP2 DUP2 MSTORE PUSH1 0x40 DUP1 DUP5 KECCAK256 DUP6 DUP6 MSTORE DUP3 MSTORE SWAP3 DUP4 SWAP1 KECCAK256 DUP4 MLOAD DUP1 DUP6 ADD SWAP1 SWAP5 MSTORE DUP1 SLOAD DUP5 MSTORE SWAP1 SWAP2 ADD SLOAD PUSH1 0xFF AND ISZERO ISZERO SWAP1 DUP3 ADD DUP2 SWAP1 MSTORE PUSH2 0x7E3 JUMPI PUSH1 0x40 MLOAD PUSH3 0x461BCD PUSH1 0xE5 SHL DUP2 MSTORE PUSH1 0x4 ADD PUSH2 0x312 SWAP1 PUSH2 0xD83 JUMP JUMPDEST DUP1 MLOAD CALLVALUE LT ISZERO PUSH2 0x804 JUMPI PUSH1 0x40 MLOAD PUSH3 0x461BCD PUSH1 0xE5 SHL DUP2 MSTORE PUSH1 0x4 ADD PUSH2 0x312 SWAP1 PUSH2 0xE53 JUMP JUMPDEST PUSH1 0x2 SLOAD PUSH1 0x40 MLOAD PUSH4 0x21421707 PUSH1 0xE1 SHL DUP2 MSTORE DUP5 SWAP2 PUSH1 0x1 PUSH1 0x1 PUSH1 0xA0 SHL SUB DUP1 DUP5 AND SWAP3 PUSH4 0x42842E0E SWAP3 PUSH2 0x83A SWAP3 AND SWAP1 CALLER SWAP1 DUP9 SWAP1 PUSH1 0x4 ADD PUSH2 0xD5F JUMP JUMPDEST PUSH1 0x0 PUSH1 0x40 MLOAD DUP1 DUP4 SUB DUP2 PUSH1 0x0 DUP8 DUP1 EXTCODESIZE ISZERO DUP1 ISZERO PUSH2 0x854 JUMPI PUSH1 0x0 DUP1 REVERT JUMPDEST POP GAS CALL ISZERO DUP1 ISZERO PUSH2 0x868 JUMPI RETURNDATASIZE PUSH1 0x0 DUP1 RETURNDATACOPY RETURNDATASIZE PUSH1 0x0 REVERT JUMPDEST POP POP POP PUSH1 0x1 PUSH1 0x1 PUSH1 0xA0 SHL SUB SWAP1 SWAP5 AND PUSH1 0x0 SWAP1 DUP2 MSTORE PUSH1 0x1 PUSH1 0x20 DUP2 DUP2 MSTORE PUSH1 0x40 DUP1 DUP5 KECCAK256 SWAP7 DUP5 MSTORE SWAP6 SWAP1 MSTORE SWAP4 DUP2 KECCAK256 SWAP1 DUP2 SSTORE SWAP1 SWAP3 ADD DUP1 SLOAD PUSH1 0xFF NOT AND SWAP1 SSTORE POP POP POP JUMP JUMPDEST PUSH1 0x1 PUSH1 0x1 PUSH1 0xA0 SHL SUB DUP3 AND PUSH1 0x0 SWAP1 DUP2 MSTORE PUSH1 0x20 DUP2 DUP2 MSTORE PUSH1 0x40 DUP1 DUP4 KECCAK256 DUP5 DUP5 MSTORE DUP3 MSTORE DUP1 DUP4 KECCAK256 DUP2 MLOAD PUSH1 0xA0 DUP2 ADD DUP4 MSTORE DUP2 SLOAD DUP2 MSTORE PUSH1 0x1 DUP3 ADD SLOAD SWAP4 DUP2 ADD SWAP4 SWAP1 SWAP4 MSTORE PUSH1 0x2 DUP2 ADD SLOAD SWAP2 DUP4 ADD DUP3 SWAP1 MSTORE PUSH1 0x3 DUP2 ADD SLOAD PUSH1 0x60 DUP5 ADD MSTORE PUSH1 0x4 ADD SLOAD PUSH1 0xFF AND ISZERO ISZERO PUSH1 0x80 DUP4 ADD DUP2 SWAP1 MSTORE SWAP1 SWAP3 SWAP2 PUSH2 0x90E DUP7 DUP7 PUSH2 0x6C6 JUMP JUMPDEST SWAP3 POP POP SWAP3 POP SWAP3 POP SWAP3 JUMP JUMPDEST PUSH1 0x0 PUSH1 0x20 DUP2 DUP2 MSTORE SWAP3 DUP2 MSTORE PUSH1 0x40 DUP1 DUP3 KECCAK256 SWAP1 SWAP4 MSTORE SWAP1 DUP2 MSTORE KECCAK256 DUP1 SLOAD PUSH1 0x1 DUP3 ADD SLOAD PUSH1 0x2 DUP4 ADD SLOAD PUSH1 0x3 DUP5 ADD SLOAD PUSH1 0x4 SWAP1 SWAP5 ADD SLOAD SWAP3 SWAP4 SWAP2 SWAP3 SWAP1 SWAP2 SWAP1 PUSH1 0xFF AND DUP6 JUMP JUMPDEST PUSH1 0x2 SLOAD PUSH1 0x1 PUSH1 0x1 PUSH1 0xA0 SHL SUB AND DUP2 JUMP JUMPDEST PUSH1 0x2 SLOAD PUSH1 0x1 PUSH1 0x1 PUSH1 0xA0 SHL SUB AND CALLER EQ PUSH2 0x98B JUMPI PUSH1 0x40 MLOAD PUSH3 0x461BCD PUSH1 0xE5 SHL DUP2 MSTORE PUSH1 0x4 ADD PUSH2 0x312 SWAP1 PUSH2 0xDDA JUMP JUMPDEST PUSH1 0x2 SLOAD PUSH1 0x40 MLOAD PUSH4 0x31A9108F PUSH1 0xE1 SHL DUP2 MSTORE DUP4 SWAP2 PUSH1 0x1 PUSH1 0x1 PUSH1 0xA0 SHL SUB SWAP1 DUP2 AND SWAP2 SWAP1 DUP4 AND SWAP1 PUSH4 0x6352211E SWAP1 PUSH2 0x9C1 SWAP1 DUP7 SWAP1 PUSH1 0x4 ADD PUSH2 0xE8A JUMP JUMPDEST PUSH1 0x20 PUSH1 0x40 MLOAD DUP1 DUP4 SUB DUP2 DUP7 DUP1 EXTCODESIZE ISZERO DUP1 ISZERO PUSH2 0x9D9 JUMPI PUSH1 0x0 DUP1 REVERT JUMPDEST POP GAS STATICCALL ISZERO DUP1 ISZERO PUSH2 0x9ED JUMPI RETURNDATASIZE PUSH1 0x0 DUP1 RETURNDATACOPY RETURNDATASIZE PUSH1 0x0 REVERT JUMPDEST POP POP POP POP PUSH1 0x40 MLOAD RETURNDATASIZE PUSH1 0x1F NOT PUSH1 0x1F DUP3 ADD AND DUP3 ADD DUP1 PUSH1 0x40 MSTORE POP DUP2 ADD SWAP1 PUSH2 0xA11 SWAP2 SWAP1 PUSH2 0xC52 JUMP JUMPDEST PUSH1 0x1 PUSH1 0x1 PUSH1 0xA0 SHL SUB AND EQ PUSH2 0xA37 JUMPI PUSH1 0x40 MLOAD PUSH3 0x461BCD PUSH1 0xE5 SHL DUP2 MSTORE PUSH1 0x4 ADD PUSH2 0x312 SWAP1 PUSH2 0xE1C JUMP JUMPDEST POP PUSH1 0x40 DUP1 MLOAD PUSH1 0xA0 DUP2 ADD DUP3 MSTORE TIMESTAMP DUP2 MSTORE PUSH1 0x20 DUP1 DUP3 ADD SWAP8 DUP9 MSTORE DUP2 DUP4 ADD SWAP7 DUP8 MSTORE PUSH1 0x60 DUP3 ADD SWAP6 DUP7 MSTORE PUSH1 0x1 PUSH1 0x80 DUP4 ADD DUP2 DUP2 MSTORE PUSH1 0x1 PUSH1 0x1 PUSH1 0xA0 SHL SUB SWAP7 SWAP1 SWAP7 AND PUSH1 0x0 SWAP1 DUP2 MSTORE DUP1 DUP4 MSTORE DUP5 DUP2 KECCAK256 SWAP6 DUP2 MSTORE SWAP5 SWAP1 SWAP2 MSTORE SWAP2 SWAP1 SWAP3 KECCAK256 SWAP2 MLOAD DUP3 SSTORE SWAP5 MLOAD SWAP5 DUP2 ADD SWAP5 SWAP1 SWAP5 SSTORE SWAP2 MLOAD PUSH1 0x2 DUP5 ADD SSTORE MLOAD PUSH1 0x3 DUP4 ADD SSTORE MLOAD PUSH1 0x4 SWAP1 SWAP2 ADD DUP1 SLOAD PUSH1 0xFF NOT AND SWAP2 ISZERO ISZERO SWAP2 SWAP1 SWAP2 OR SWAP1 SSTORE JUMP JUMPDEST PUSH1 0x1 PUSH1 0x1 PUSH1 0xA0 SHL SUB DUP3 AND PUSH1 0x0 SWAP1 DUP2 MSTORE PUSH1 0x20 DUP2 DUP2 MSTORE PUSH1 0x40 DUP1 DUP4 KECCAK256 DUP5 DUP5 MSTORE DUP3 MSTORE SWAP2 DUP3 SWAP1 KECCAK256 DUP3 MLOAD PUSH1 0xA0 DUP2 ADD DUP5 MSTORE DUP2 SLOAD DUP2 MSTORE PUSH1 0x1 DUP3 ADD SLOAD SWAP3 DUP2 ADD SWAP3 SWAP1 SWAP3 MSTORE PUSH1 0x2 DUP2 ADD SLOAD SWAP3 DUP3 ADD SWAP3 SWAP1 SWAP3 MSTORE PUSH1 0x3 DUP3 ADD SLOAD PUSH1 0x60 DUP3 ADD MSTORE PUSH1 0x4 SWAP1 SWAP2 ADD SLOAD PUSH1 0xFF AND ISZERO ISZERO PUSH1 0x80 DUP3 ADD DUP2 SWAP1 MSTORE PUSH2 0xB34 JUMPI PUSH1 0x40 MLOAD PUSH3 0x461BCD PUSH1 0xE5 SHL DUP2 MSTORE PUSH1 0x4 ADD PUSH2 0x312 SWAP1 PUSH2 0xD83 JUMP JUMPDEST PUSH2 0xB3E DUP4 DUP4 PUSH2 0x6C6 JUMP JUMPDEST CALLVALUE LT ISZERO PUSH2 0xB5D JUMPI PUSH1 0x40 MLOAD PUSH3 0x461BCD PUSH1 0xE5 SHL DUP2 MSTORE PUSH1 0x4 ADD PUSH2 0x312 SWAP1 PUSH2 0xE53 JUMP JUMPDEST PUSH1 0x2 SLOAD PUSH1 0x40 MLOAD PUSH4 0x21421707 PUSH1 0xE1 SHL DUP2 MSTORE DUP5 SWAP2 PUSH1 0x1 PUSH1 0x1 PUSH1 0xA0 SHL SUB DUP1 DUP5 AND SWAP3 PUSH4 0x42842E0E SWAP3 PUSH2 0xB93 SWAP3 AND SWAP1 CALLER SWAP1 DUP9 SWAP1 PUSH1 0x4 ADD PUSH2 0xD5F JUMP JUMPDEST PUSH1 0x0 PUSH1 0x40 MLOAD DUP1 DUP4 SUB DUP2 PUSH1 0x0 DUP8 DUP1 EXTCODESIZE ISZERO DUP1 ISZERO PUSH2 0xBAD JUMPI PUSH1 0x0 DUP1 REVERT JUMPDEST POP GAS CALL ISZERO DUP1 ISZERO PUSH2 0xBC1 JUMPI RETURNDATASIZE PUSH1 0x0 DUP1 RETURNDATACOPY RETURNDATASIZE PUSH1 0x0 REVERT JUMPDEST POP POP POP PUSH1 0x1 PUSH1 0x1 PUSH1 0xA0 SHL SUB SWAP1 SWAP5 AND PUSH1 0x0 SWAP1 DUP2 MSTORE PUSH1 0x20 DUP2 DUP2 MSTORE PUSH1 0x40 DUP1 DUP4 KECCAK256 SWAP6 DUP4 MSTORE SWAP5 SWAP1 MSTORE SWAP3 DUP4 KECCAK256 DUP4 DUP2 SSTORE PUSH1 0x1 DUP2 ADD DUP5 SWAP1 SSTORE PUSH1 0x2 DUP2 ADD DUP5 SWAP1 SSTORE PUSH1 0x3 DUP2 ADD SWAP4 SWAP1 SWAP4 SSTORE POP POP PUSH1 0x4 ADD DUP1 SLOAD PUSH1 0xFF NOT AND SWAP1 SSTORE POP JUMP JUMPDEST PUSH1 0x0 PUSH2 0xC1C DUP3 DUP5 PUSH2 0xF37 JUMP JUMPDEST SWAP4 SWAP3 POP POP POP JUMP JUMPDEST PUSH1 0x0 PUSH2 0xC1C DUP3 DUP5 PUSH2 0xEF8 JUMP JUMPDEST PUSH1 0x0 PUSH2 0xC1C DUP3 DUP5 PUSH2 0xF18 JUMP JUMPDEST PUSH1 0x0 DUP2 DUP4 LT ISZERO PUSH2 0xC4B JUMPI DUP2 PUSH2 0xC1C JUMP JUMPDEST POP SWAP1 SWAP2 SWAP1 POP JUMP JUMPDEST PUSH1 0x0 PUSH1 0x20 DUP3 DUP5 SUB SLT ISZERO PUSH2 0xC63 JUMPI DUP1 DUP2 REVERT JUMPDEST DUP2 MLOAD PUSH2 0xC1C DUP2 PUSH2 0xF64 JUMP JUMPDEST PUSH1 0x0 PUSH1 0x20 DUP3 DUP5 SUB SLT ISZERO PUSH2 0xC7F JUMPI DUP1 DUP2 REVERT JUMPDEST DUP2 CALLDATALOAD PUSH2 0xC1C DUP2 PUSH2 0xF64 JUMP JUMPDEST PUSH1 0x0 DUP1 PUSH1 0x40 DUP4 DUP6 SUB SLT ISZERO PUSH2 0xC9C JUMPI DUP1 DUP2 REVERT JUMPDEST DUP3 CALLDATALOAD PUSH2 0xCA7 DUP2 PUSH2 0xF64 JUMP JUMPDEST SWAP5 PUSH1 0x20 SWAP4 SWAP1 SWAP4 ADD CALLDATALOAD SWAP4 POP POP POP JUMP JUMPDEST PUSH1 0x0 DUP1 PUSH1 0x0 PUSH1 0x60 DUP5 DUP7 SUB SLT ISZERO PUSH2 0xCC9 JUMPI DUP1 DUP2 REVERT JUMPDEST DUP4 CALLDATALOAD SWAP3 POP PUSH1 0x20 DUP5 ADD CALLDATALOAD PUSH2 0xCDB DUP2 PUSH2 0xF64 JUMP JUMPDEST SWAP3 SWAP6 SWAP3 SWAP5 POP POP POP PUSH1 0x40 SWAP2 SWAP1 SWAP2 ADD CALLDATALOAD SWAP1 JUMP JUMPDEST PUSH1 0x0 DUP1 PUSH1 0x0 PUSH1 0x60 DUP5 DUP7 SUB SLT ISZERO PUSH2 0xCC9 JUMPI DUP3 DUP4 REVERT JUMPDEST PUSH1 0x0 DUP1 PUSH1 0x0 DUP1 PUSH1 0x0 PUSH1 0xA0 DUP7 DUP9 SUB SLT ISZERO PUSH2 0xD17 JUMPI DUP1 DUP2 REVERT JUMPDEST DUP6 CALLDATALOAD SWAP5 POP PUSH1 0x20 DUP7 ADD CALLDATALOAD SWAP4 POP PUSH1 0x40 DUP7 ADD CALLDATALOAD SWAP3 POP PUSH1 0x60 DUP7 ADD CALLDATALOAD PUSH2 0xD37 DUP2 PUSH2 0xF64 JUMP JUMPDEST SWAP5 SWAP8 SWAP4 SWAP7 POP SWAP2 SWAP5 PUSH1 0x80 ADD CALLDATALOAD SWAP3 SWAP2 POP POP JUMP JUMPDEST SWAP1 JUMP JUMPDEST PUSH1 0x1 PUSH1 0x1 PUSH1 0xA0 SHL SUB SWAP2 SWAP1 SWAP2 AND DUP2 MSTORE PUSH1 0x20 ADD SWAP1 JUMP JUMPDEST PUSH1 0x1 PUSH1 0x1 PUSH1 0xA0 SHL SUB SWAP4 DUP5 AND DUP2 MSTORE SWAP2 SWAP1 SWAP3 AND PUSH1 0x20 DUP3 ADD MSTORE PUSH1 0x40 DUP2 ADD SWAP2 SWAP1 SWAP2 MSTORE PUSH1 0x60 ADD SWAP1 JUMP JUMPDEST PUSH1 0x20 DUP1 DUP3 MSTORE PUSH1 0xF SWAP1 DUP3 ADD MSTORE PUSH15 0x13D999995C881B9BDD08199BDD5B99 PUSH1 0x8A SHL PUSH1 0x40 DUP3 ADD MSTORE PUSH1 0x60 ADD SWAP1 JUMP JUMPDEST PUSH1 0x20 DUP1 DUP3 MSTORE PUSH1 0x14 SWAP1 DUP3 ADD MSTORE PUSH20 0x2330B4B632B2103A379039B2B7321022BA3432B9 PUSH1 0x61 SHL PUSH1 0x40 DUP3 ADD MSTORE PUSH1 0x60 ADD SWAP1 JUMP JUMPDEST PUSH1 0x20 DUP1 DUP3 MSTORE PUSH1 0x22 SWAP1 DUP3 ADD MSTORE PUSH32 0x4973206E6F74206F776E6572206F662074686520747261646520636F6E747261 PUSH1 0x40 DUP3 ADD MSTORE PUSH2 0x18DD PUSH1 0xF2 SHL PUSH1 0x60 DUP3 ADD MSTORE PUSH1 0x80 ADD SWAP1 JUMP JUMPDEST PUSH1 0x20 DUP1 DUP3 MSTORE PUSH1 0x1C SWAP1 DUP3 ADD MSTORE PUSH32 0x4973206E6F74206F776E6572206F662045524337323120746F6B656E00000000 PUSH1 0x40 DUP3 ADD MSTORE PUSH1 0x60 ADD SWAP1 JUMP JUMPDEST PUSH1 0x20 DUP1 DUP3 MSTORE PUSH1 0x17 SWAP1 DUP3 ADD MSTORE PUSH32 0x496E73756666696369656E742066756E64732073656E74000000000000000000 PUSH1 0x40 DUP3 ADD MSTORE PUSH1 0x60 ADD SWAP1 JUMP JUMPDEST SWAP1 DUP2 MSTORE PUSH1 0x20 ADD SWAP1 JUMP JUMPDEST SWAP2 DUP3 MSTORE ISZERO ISZERO PUSH1 0x20 DUP3 ADD MSTORE PUSH1 0x40 ADD SWAP1 JUMP JUMPDEST SWAP3 DUP4 MSTORE PUSH1 0x20 DUP4 ADD SWAP2 SWAP1 SWAP2 MSTORE ISZERO ISZERO PUSH1 0x40 DUP3 ADD MSTORE PUSH1 0x60 ADD SWAP1 JUMP JUMPDEST SWAP5 DUP6 MSTORE PUSH1 0x20 DUP6 ADD SWAP4 SWAP1 SWAP4 MSTORE PUSH1 0x40 DUP5 ADD SWAP2 SWAP1 SWAP2 MSTORE PUSH1 0x60 DUP4 ADD MSTORE ISZERO ISZERO PUSH1 0x80 DUP3 ADD MSTORE PUSH1 0xA0 ADD SWAP1 JUMP JUMPDEST PUSH1 0x0 DUP3 NOT DUP3 GT ISZERO PUSH2 0xEF3 JUMPI PUSH2 0xEF3 PUSH2 0xF4E JUMP JUMPDEST POP ADD SWAP1 JUMP JUMPDEST PUSH1 0x0 DUP3 PUSH2 0xF13 JUMPI PUSH4 0x4E487B71 PUSH1 0xE0 SHL DUP2 MSTORE PUSH1 0x12 PUSH1 0x4 MSTORE PUSH1 0x24 DUP2 REVERT JUMPDEST POP DIV SWAP1 JUMP JUMPDEST PUSH1 0x0 DUP2 PUSH1 0x0 NOT DIV DUP4 GT DUP3 ISZERO ISZERO AND ISZERO PUSH2 0xF32 JUMPI PUSH2 0xF32 PUSH2 0xF4E JUMP JUMPDEST POP MUL SWAP1 JUMP JUMPDEST PUSH1 0x0 DUP3 DUP3 LT ISZERO PUSH2 0xF49 JUMPI PUSH2 0xF49 PUSH2 0xF4E JUMP JUMPDEST POP SUB SWAP1 JUMP JUMPDEST PUSH4 0x4E487B71 PUSH1 0xE0 SHL PUSH1 0x0 MSTORE PUSH1 0x11 PUSH1 0x4 MSTORE PUSH1 0x24 PUSH1 0x0 REVERT JUMPDEST PUSH1 0x1 PUSH1 0x1 PUSH1 0xA0 SHL SUB DUP2 AND DUP2 EQ PUSH2 0xF79 JUMPI PUSH1 0x0 DUP1 REVERT JUMPDEST POP JUMP INVALID LOG2 PUSH5 0x6970667358 0x22 SLT KECCAK256 0xDC EQ LOG2 LOG2 STATICCALL 0x28 MUL DUP5 0x1F 0x4C RETURNDATACOPY 0xBC 0xE1 0xAA 0xAD 0xF6 0xE9 DUP12 PUSH20 0x82EC398470995BBF6BA00F514864736F6C634300 ADDMOD STOP STOP CALLER ",
  "sha1": "2e2207f20548ba8ad7ea98491e7b78c66320950a",
  "source": "// SPDX-License-Identifier: UNLICENSED\npragma solidity 0.8.0;\n\nimport \"@openzeppelin/contracts/token/ERC721/ERC721.sol\";\nimport \"@openzeppelin/contracts/utils/math/SafeMath.sol\";\nimport \"@openzeppelin/contracts/utils/math/Math.sol\";\n\ncontract NftTrader {\n    // Address of ERC721 contract owned by Galaxy => (tokenId => offer details)\n    mapping(address => mapping(uint256 => TimedOffer)) public timedOffers;\n    mapping(address => mapping(uint256 => ConstantOffer)) public constantOffers;\n    address payable public tradeOwner;\n\n    struct TimedOffer {\n        uint256 createdAt;\n        uint256 dayPriceChange;\n        uint256 minPrice;\n        uint256 maxPrice;\n        bool isSet;\n    }\n\n    struct ConstantOffer {\n        uint256 price;\n        bool isSet;\n    }\n\n    constructor () payable {\n        tradeOwner = payable(msg.sender);\n    }\n\n    function setOwner(address payable newOwner) public {\n        require(msg.sender == tradeOwner, \"Is not owner of the trade contract\");\n        tradeOwner = newOwner;\n    }\n\n    function addTimedOffer(\n        uint256 dayPriceChange,\n        uint256 minPrice,\n        uint256 maxPrice,\n        address contractAddr,\n        uint256 tokenId\n    ) public {\n        require(msg.sender == tradeOwner, \"Is not owner of the trade contract\");\n\n        ERC721 token = ERC721(contractAddr);\n        require(token.ownerOf(tokenId) == tradeOwner, \"Is not owner of ERC721 token\");\n\n        timedOffers[contractAddr][tokenId] = TimedOffer(\n            block.timestamp,\n            dayPriceChange,\n            minPrice,\n            maxPrice,\n            true\n        );\n    }\n\n    function offsetTimedOffer(\n        int256 offsetSeconds,\n        address contractAddr,\n        uint256 tokenId\n    ) public {\n        require(msg.sender == tradeOwner, \"Is not owner of the trade contract\");\n\n        TimedOffer storage offer = timedOffers[contractAddr][tokenId];\n        require(offer.isSet, \"Offer not found\");\n\n        offer.createdAt += uint256(offsetSeconds);\n    }\n\n    function deleteTimedOffer(address contractAddr, uint256 tokenId) public {\n        require(msg.sender == tradeOwner, \"Is not owner of the trade contract\");\n        delete timedOffers[contractAddr][tokenId];\n    }\n\n    function timedPurchase(address contractAddr, uint256 tokenId) public payable {\n        TimedOffer memory offer = timedOffers[contractAddr][tokenId];\n        require(offer.isSet, \"Offer not found\");\n        require(msg.value >= getTimedPrice(contractAddr, tokenId), \"Insufficient funds sent\");\n\n        ERC721 token = ERC721(contractAddr);\n        token.safeTransferFrom(tradeOwner, msg.sender, tokenId);\n        delete timedOffers[contractAddr][tokenId];\n    }\n\n    function getTimedPrice(address contractAddr, uint256 tokenId) public view returns (\n        uint256 currentPrice\n    ){\n        TimedOffer memory offer = timedOffers[contractAddr][tokenId];\n        if (offer.isSet) {\n            uint256 daysPassed = SafeMath.div(\n                SafeMath.sub(block.timestamp, offer.createdAt), 3600 * 24\n            );\n            uint256 calculatedPrice = SafeMath.sub(\n                offer.maxPrice, SafeMath.mul(daysPassed, offer.dayPriceChange)\n            );\n            currentPrice = Math.max(offer.minPrice, calculatedPrice);\n        }\n        else {\n            currentPrice = 0;\n        }\n    }\n\n    function getTimedOffer(address contractAddr, uint256 tokenId) public view returns (\n        uint256 minPrice,\n        uint256 currentPrice,\n        bool isSet\n    ) {\n        TimedOffer memory offer = timedOffers[contractAddr][tokenId];\n        minPrice = offer.minPrice;\n        isSet = offer.isSet;\n        currentPrice = getTimedPrice(contractAddr, tokenId);\n    }\n\n    function addConstantOffer(\n        uint256 price,\n        address contractAddr,\n        uint256 tokenId\n    ) public {\n        require(msg.sender == tradeOwner, \"Is not owner of the trade contract\");\n\n        ERC721 token = ERC721(contractAddr);\n        require(token.ownerOf(tokenId) == tradeOwner, \"Is not owner of ERC721 token\");\n\n        constantOffers[contractAddr][tokenId] = ConstantOffer(price, true);\n    }\n\n    function deleteConstantOffer(address contractAddr, uint256 tokenId) public {\n        require(msg.sender == tradeOwner, \"Is not owner of the trade contract\");\n        delete constantOffers[contractAddr][tokenId];\n    }\n\n    function constantPurchase(address contractAddr, uint256 tokenId) public payable {\n        ConstantOffer memory offer = constantOffers[contractAddr][tokenId];\n        require(offer.isSet, \"Offer not found\");\n        require(msg.value >= offer.price, \"Insufficient funds sent\");\n\n        ERC721 token = ERC721(contractAddr);\n        token.safeTransferFrom(tradeOwner, msg.sender, tokenId);\n        delete constantOffers[contractAddr][tokenId];\n    }\n\n    function withdraw() public {\n        require(msg.sender == tradeOwner, \"Is not owner of the trade contract\");\n        uint256 amount = address(this).balance;\n        (bool success,) = tradeOwner.call{value : amount}(\"\");\n        require(success, \"Failed to send Ether\");\n    }\n\n    function getBalance() public view returns (uint256 balance){\n        require(msg.sender == tradeOwner, \"Is not owner of the trade contract\");\n        balance = address(this).balance;\n    }\n}\n",
  "sourcePath": "contracts/NftTrader.sol",
  "type": "contract"
}